:100000000C9434000C9451000C9451000C94510049
:100010000C9451000C9451000C9451000C9451001C
:100020000C9451000C9451000C9451000C9451000C
:100030000C9451000C9451000C9451000C945100FC
:100040000C947D000C9451000C9451000C945100C0
:100050000C9451000C9451000C9451000C945100DC
:100060000C9451000C94510011241FBECFEFD4E02A
:10007000DEBFCDBF11E0A0E0B1E0E6E5F2E002C0F6
:1000800005900D92A030B107D9F711E0A0E0B1E0E2
:1000900001C01D92A930B107E1F70E9476000C94CF
:1000A00029010C9400008AB18C6F8AB987B18F63E3
:1000B00087B988B1876088B908958BB18C6F8BB987
:1000C00088B1886388B968EE73E080E090E00E94B0
:1000D000C5008BB183708BB988B1877C88B968EE15
:1000E00073E080E090E00E94C50008950E94EF0058
:1000F0000E9453000E945D00FDCF1F920F920FB629
:100100000F9211242F933F938F939F93AF93BF939D
:100110008091040190910501A0910601B091070121
:10012000309108010196A11DB11D232F2D5F2D37A0
:1001300020F02D570196A11DB11D20930801809339
:10014000040190930501A0930601B09307018091EB
:10015000000190910101A0910201B091030101966B
:10016000A11DB11D8093000190930101A093020194
:10017000B0930301BF91AF919F918F913F912F91C8
:100180000F900FBE0F901F901895EF92FF920F9354
:100190001F937B018C018FB7F8942091040130915B
:1001A000050140910601509107018FBF6FB7F89488
:1001B0008091040190910501A0910601B091070181
:1001C0006FBF821B930BA40BB50BE816F9060A0749
:1001D0001B0760F71F910F91FF90EF90089578949F
:1001E00084B5826084BD84B5816084BD85B582603C
:1001F00085BD85B5816085BDEEE6F0E080818160DA
:100200008083E1E8F0E0808182608083808181608A
:100210008083E0E8F0E0808181608083E1EBF0E0C2
:10022000808184608083E0EBF0E080818160808366
:10023000EAE7F0E08081846080838081826080834F
:100240008081816080838081806880831092C1007A
:060250000895F894FFCFB1
:00000001FF
