:100000000C9434000C9451000C9451000C94510049
:100010000C9451000C9451000C9451000C9451001C
:100020000C9451000C9451000C9451000C9451000C
:100030000C9451000C9451000C9451000C945100FC
:100040000C94B9000C9451000C9451000C94510084
:100050000C9451000C9451000C9451000C945100DC
:100060000C9451000C94510011241FBECFEFD4E02A
:10007000DEBFCDBF11E0A0E0B1E0EEECF2E002C0E7
:1000800005900D92A030B107D9F711E0A0E0B1E0E2
:1000900001C01D92A930B107E1F70E94AE000C9497
:1000A00065010C940000EF92FF920F931F93CF9382
:1000B000DF9300E010E081E0E82EF12C88B1887F2A
:1000C00088B988B19701002E02C0220F331F0A940D
:1000D000E2F7822B88B9C0E0D0E08BB18C6F8BB98E
:1000E00088B1886388B9C630D10574F49BB19E018C
:1000F0002E5F3F4FA70102C0440F551F2A95E2F71C
:10010000842F809589238BB9CE0106978330910582
:1001100070F498B19E0123503040A70102C0440FF3
:10012000551F2A95E2F7842F8095892388B960E9C5
:1001300071E080E090E00E9401012196C930D10574
:1001400061F60F5F1F4F0330110509F0B7CFDF9144
:10015000CF911F910F91FF90EF9008950E942B0176
:100160008AB18C6F8AB987B18F6387B90E945300B7
:10017000FDCF1F920F920FB60F9211242F933F9332
:100180008F939F93AF93BF9380910401909105014A
:10019000A0910601B0910701309108010196A11DBF
:1001A000B11D232F2D5F2D3720F02D570196A11D56
:1001B000B11D209308018093040190930501A09341
:1001C0000601B09307018091000190910101A09177
:1001D0000201B09103010196A11DB11D80930001A0
:1001E00090930101A0930201B0930301BF91AF91DD
:1001F0009F918F913F912F910F900FBE0F901F9065
:100200001895EF92FF920F931F937B018C018FB78C
:10021000F89420910401309105014091060150911C
:1002200007018FBF6FB7F894809104019091050189
:10023000A0910601B09107016FBF821B930BA40B25
:10024000B50BE816F9060A071B0760F71F910F9117
:10025000FF90EF900895789484B5826084BD84B552
:10026000816084BD85B5826085BD85B5816085BDB1
:10027000EEE6F0E0808181608083E1E8F0E080815B
:1002800082608083808181608083E0E8F0E080810B
:1002900081608083E1EBF0E0808184608083E0EB2B
:1002A000F0E0808181608083EAE7F0E08081846013
:1002B000808380818260808380818160808380816F
:0E02C000806880831092C1000895F894FFCFEB
:00000001FF
