:100000000C9461000C947E000C947E000C947E0095
:100010000C947E000C947E000C947E000C947E0068
:100020000C947E000C947E000C947E000C947E0058
:100030000C947E000C947E000C947E000C947E0048
:100040000C9463010C947E000C947E000C947E0052
:100050000C947E000C947E000C947E000C947E0028
:100060000C947E000C947E00000000002400270009
:100070002A0000000000250028002B0000000000DE
:1000800023002600290004040404040404040202DA
:100090000202020203030303030301020408102007
:1000A0004080010204081020010204081020000012
:1000B0000007000201000003040600000000000029
:1000C000000011241FBECFEFD4E0DEBFCDBF11E092
:1000D000A0E0B1E0E2E2F4E002C005900D92A030B1
:1000E000B107D9F711E0A0E0B1E001C01D92AB303B
:1000F000B107E1F70E94F1000C940F020C9400008C
:1001000060910001709101016072707045E0759519
:1001100067954A95E1F787E00E9417016091000119
:10012000709101016071707034E0759567953A9532
:10013000E1F786E00E9417016091000170910101D2
:100140006870707023E0759567952A95E1F785E0F2
:100150000E9417016091000170910101647070703C
:10016000759567957595679584E00E941701609174
:10017000000170910101627070707595679583E060
:100180000E94170160910001617082E00E941701D6
:1001900068EE73E080E090E00E94AB018091000186
:1001A00090910101019690930101809300010895BF
:1001B00087E061E00E94F80086E061E00E94F800BC
:1001C00085E061E00E94F80084E061E00E94F800B0
:1001D00083E061E00E94F80082E061E00E94F800A4
:1001E00008950E94D5010E94D8000E948000FDCF92
:1001F000282F30E0C90186569F4FFC019491F901E8
:10020000EA57FF4FE491EE2389F0F0E0EE0FFF1F75
:10021000E859FF4FA591B491662329F48C919095EC
:1002200089238C9308958C91892B8C930895482F62
:1002300050E0CA0182559F4FFC0194919A012656C5
:100240003F4FF9012491FA01EA57FF4FE491EE2361
:10025000C9F1992331F1933021F4909180009F7777
:1002600005C0943031F4909180009F7D9093800080
:1002700018C0913019F494B59F7704C0923021F4DE
:1002800094B59F7D94BD0DC0963021F49091B0003F
:100290009F7705C0973029F49091B0009F7D90938F
:1002A000B000F0E0EE0FFF1FEE58FF4FA591B491A4
:1002B000662329F48C91209582238C9308958C9148
:1002C000822B8C9308951F920F920FB60F921124D8
:1002D0002F933F938F939F93AF93BF93809106018A
:1002E00090910701A0910801B091090130910A0194
:1002F0000196A11DB11D232F2D5F2D3720F02D5705
:100300000196A11DB11D20930A01809306019093CF
:100310000701A0930801B093090180910201909117
:100320000301A0910401B09105010196A11DB11D29
:100330008093020190930301A0930401B0930501FF
:10034000BF91AF919F918F913F912F910F900FBED1
:100350000F901F901895EF92FF920F931F937B01C0
:100360008C018FB7F89420910601309107014091DC
:100370000801509109018FBF6FB7F8948091060171
:1003800090910701A0910801B09109016FBF821BF4
:10039000930BA40BB50BE816F9060A071B0760F7C9
:1003A0001F910F91FF90EF900895789484B582602B
:1003B00084BD84B5816084BD85B5826085BD85B509
:1003C000816085BDEEE6F0E0808181608083E1E8B8
:1003D000F0E0808182608083808181608083E0E8BA
:1003E000F0E0808181608083E1EBF0E080818460D7
:1003F0008083E0EBF0E0808181608083EAE7F0E0D9
:10040000808184608083808182608083808181603C
:1004100080838081806880831092C1000895F89461
:02042000FFCF0C
:00000001FF
