:100000000C9462000C948A000C948A000C948A0070
:100010000C948A000C948A000C948A000C948A0038
:100020000C948A000C94B7000C948A000C948A00FB
:100030000C948A000C948A000C948A000C948A0018
:100040000C94B8010C948A000C9464020C948A00FD
:100050000C948A000C948A000C948A000C948A00F8
:100060000C948A000C948A000000000024002700F1
:100070002A0000000000250028002B0000000000DE
:1000800023002600290004040404040404040202DA
:100090000202020203030303030301020408102007
:1000A0004080010204081020010204081020000012
:1000B0000007000201000003040600000000000029
:1000C0000000AD0311241FBECFEFD4E0DEBFCDBFD3
:1000D00011E0A0E0B1E0EEE1FBE002C005900D927E
:1000E000AE30B107D9F711E0AEE0B1E001C01D922A
:1000F000A13BB107E1F710E0C4ECD0E004C02297C7
:10010000FE010E948905C23CD107C9F70E94150172
:100110000C948D050C9400001F938DE061E00E940B
:100120001C01F89410910E01789480910F0118171A
:1001300051F0612F772767FD7095759567958EE96A
:1001400091E00E94F40410930F0164E670E080E0F7
:1001500090E00E9400028DE060E00E941C0164E6D5
:1001600070E080E090E00E9400021F9108951F92CD
:100170000F920FB60F9211241F932F933F934F931B
:100180005F936F937F938F939F93AF93BF93EF93FF
:10019000FF93809100010E946901892B11F013E007
:1001A00001C010E0809102010E946901892B11F0C9
:1001B00081E0182790911001911B90FF09C01093C6
:1001C000100180910E0181509270890F80930E0171
:1001D000FF91EF91BF91AF919F918F917F916F911F
:1001E0005F914F913F912F911F910F900FBE0F90F4
:1001F0001F9018951092B00082E08093B10081E0CA
:10020000809370008091000161E00E941C01809148
:10021000020161E00E941C018EE991E040E855E294
:1002200060E070E00E94A10208950E942A020E94EC
:10023000FA000E948C00FDCF482F50E0CA01825581
:100240009F4FFC012491CA0186569F4FFC01949157
:100250004A575F4FFA0134913323D1F1222331F110
:10026000233021F4809180008F7705C0243031F451
:10027000809180008F7D8093800018C0213019F418
:1002800084B58F7704C0223021F484B58F7D84BD7E
:100290000DC0263021F48091B0008F7705C0273043
:1002A00029F48091B0008F7D8093B000E32FF0E0BF
:1002B000EE0FFF1FEE58FF4FA591B491662329F46E
:1002C0008C91909589238C9308958C91892B8C9394
:1002D0000895682F70E0CB0182559F4FFC01249157
:1002E000CB0186569F4FFC0144916A577F4FFB011B
:1002F0009491992319F420E030E038C0222331F1A1
:10030000233021F4809180008F7705C0243031F4B0
:10031000809180008F7D8093800018C0213019F477
:1003200084B58F7704C0223021F484B58F7D84BDDD
:100330000DC0263021F48091B0008F7705C02730A2
:1003400029F48091B0008F7D8093B000892F90E0D8
:10035000880F991F84589F4FFC01A591B4918C91EF
:1003600020E030E0842311F021E030E0C90108955D
:100370001F920F920FB60F9211242F933F938F93DA
:100380009F93AF93BF938091150190911601A09117
:100390001701B0911801309119010196A11DB11DED
:1003A000232F2D5F2D3720F02D570196A11DB11D54
:1003B000209319018093150190931601A0931701C2
:1003C000B09318018091110190911201A091130135
:1003D000B09114010196A11DB11D8093110190935C
:1003E0001201A0931301B0931401BF91AF919F919B
:1003F0008F913F912F910F900FBE0F901F901895E6
:10040000EF92FF920F931F937B018C018FB7F894AB
:1004100040911501509116016091170170911801DA
:100420008FBF2FB7F8948091150190911601A0917C
:100430001701B09118012FBF841B950BA60BB70BAA
:10044000E816F9060A071B0760F71F910F91FF9046
:10045000EF900895789484B5826084BD84B58160FE
:1004600084BD85B5826085BD85B5816085BDEEE6BC
:10047000F0E0808181608083E1E8F0E0808182604B
:100480008083808181608083E0E8F0E0808181600A
:100490008083E1EBF0E0808184608083E0EBF0E03A
:1004A000808181608083EAE7F0E0808184608083DE
:1004B0008081826080838081816080838081806888
:1004C00080831092C10008951F920F920FB60F9271
:1004D00011242F933F934F935F936F937F938F9349
:1004E0009F93AF93BF93EF93FF934091C600E0912A
:1004F0009A01F0919B01CF01019660E870E00E94A3
:1005000023059C0180919C0190919D01281739073A
:1005100039F0E65EFE4F408330939B0120939A01B1
:10052000FF91EF91BF91AF919F918F917F916F91CB
:100530005F914F913F912F910F900FBE0F901F90A1
:1005400018955F926F927F928F929F92AF92BF9217
:10055000CF92DF92EF92FF920F931F93CF93DF938F
:10056000EC013A014B01413482E458078FE06807FF
:1005700080E078070CF07FC060E874E88EE190E0DE
:10058000A40193010E945805215030404040504042
:10059000CA01B90122E030E040E050E00E94580575
:1005A00059016A01A6019501209530954095509515
:1005B00094E0220F331F441F551F9A95D1F760E036
:1005C00074E284EF90E00E945805CA01B9012FEF50
:1005D00030E040E050E00E940405A40193010E9435
:1005E0005805C90181509F4F181619061CF4522E48
:1005F0005A9403C055245394521A60E079E08DE375
:1006000090E0A40193010E945805215030404040E1
:100610005040CA01B90122E030E040E050E00E94C1
:100620005805209530954095509583E0220F331F53
:10063000441F551F8A95D1F760E074E284EF90E083
:100640000E945805CA01B9012FEF30E040E050E0A8
:100650000E940405A40193010E945805C90181501C
:100660009F4F181619061CF4822F815002C081E09A
:10067000821B851500F5E885F98581E090E00A8800
:1006800002C0880F991F0A94E2F7808360E079E046
:100690008DE390E0A40193010E9458052150304061
:1006A00040405040CA01B90122E030E040E050E053
:1006B0000E94580504C0E885F98510829501EC81F7
:1006C000FD813083EE81FF812083EA85FB852081D7
:1006D00041E050E0CA010E8402C0880F991F0A94BD
:1006E000E2F7282B2083EA85FB852081CA010F844D
:1006F00002C0880F991F0A94E2F7282B2083EA850D
:10070000FB858081088802C0440F551F0A94E2F7D8
:10071000842B8083DF91CF911F910F91FF90EF90F9
:10072000DF90CF90BF90AF909F908F907F906F9011
:100730005F900895FC01A085B18521898C9190E09E
:10074000022E02C0959587950A94E2F780FFF6CFB6
:100750000484F585E02D6083089588E091E090930E
:100760009F0180939E018AE191E09093A101809383
:10077000A00185EC90E09093A3018093A20184EC0A
:1007800090E09093A5018093A40180EC90E0909379
:10079000A7018093A60181EC90E09093A90180933A
:1007A000A80186EC90E09093AB018093AA0184E0CD
:1007B0008093AC0183E08093AD0187E08093AE012C
:1007C00085E08093AF0181E08093B00108950F939D
:1007D0001F93CF93DF938C01EB0109C02196D801C1
:1007E000ED91FC910190F081E02DC801099568819F
:1007F0006623A1F7DF91CF911F910F910895EF929A
:10080000FF920F931F93CF93DF938C017B01EA013B
:100810000CC0D7016D917D01D801ED91FC91019043
:10082000F081E02DC80109952197209791F7DF917C
:10083000CF911F910F91FF90EF9008950F931F9309
:100840008C01DC01ED91FC910190F081E02D6DE0D7
:100850000995D801ED91FC910190F081E02DC8013E
:100860006AE009951F910F9108952F923F924F9240
:100870005F926F927F928F929F92AF92BF92CF9230
:10088000DF92EF92FF920F931F93DF93CF93CDB739
:10089000DEB7A0970FB6F894DEBF0FBECDBF1C0128
:1008A0006A017B01411551056105710549F4DC01BF
:1008B000ED91FC910190F081E02D60E3099554C029
:1008C000882499245401422E55246624772401E07B
:1008D00010E00C0F1D1F080D191DC701B601A30163
:1008E00092010E943605F80160830894811C911CD6
:1008F000A11CB11CC701B601A30192010E943605DB
:10090000C901DA016C017D01C114D104E104F104D3
:10091000F1F681E0E82EF12CEC0EFD1EE80CF91C3E
:100920003E010894611C711CD501C4010197A10905
:10093000B1096C01C818D90814C0F601EE0DFF1DED
:1009400060816A3010F4605D01C0695CD101ED9195
:10095000FC910190F081E02DC10109950894E10816
:10096000F1086E147F0449F7A0960FB6F894DEBF25
:100970000FBECDBFCF91DF911F910F91FF90EF90F0
:10098000DF90CF90BF90AF909F908F907F906F90AF
:100990005F904F903F902F900895EF92FF920F93AA
:1009A0001F93CF93DF93EC017A018B0177FF0FC088
:1009B000E881F9810190F081E02D6DE209951095B3
:1009C0000095F094E094E11CF11C011D111DCE0175
:1009D000B801A7012AE00E943504DF91CF911F9151
:1009E0000F91FF90EF9008950F931F938C01AB012F
:1009F000662757FD6095762F0E94CD04C8010E949E
:100A00001E041F910F910895629FD001739FF00102
:100A1000829FE00DF11D649FE00DF11D929FF00D8E
:100A2000839FF00D749FF00D659FF00D9927729FC5
:100A3000B00DE11DF91F639FB00DE11DF91FBD0150
:100A4000CF011124089597FB092E07260AD077FDC0
:100A500004D049D006D000201AF4709561957F4FDC
:100A60000895F6F7909581959F4F0895A1E21A2E6B
:100A7000AA1BBB1BFD010DC0AA1FBB1FEE1FFF1F42
:100A8000A217B307E407F50720F0A21BB30BE40B92
:100A9000F50B661F771F881F991F1A9469F76095D9
:100AA0007095809590959B01AC01BD01CF01089593
:100AB00097FB092E05260ED057FD04D0D7DF0AD0AC
:100AC000001C38F450954095309521953F4F4F4F7D
:100AD0005F4F0895F6F790958095709561957F4FDB
:100AE0008F4F9F4F0895AA1BBB1B51E107C0AA1F40
:100AF000BB1FA617B70710F0A61BB70B881F991FBF
:100B00005A95A9F780959095BC01CD010895EE0FF7
:0E0B1000FF1F0590F491E02D0994F894FFCF9B
:0E0B1E000B000C00000000009A03E703FF0329
:00000001FF
