:100000000C9462000C948A000C948A000C948A0070
:100010000C948A000C948A000C948A000C948A0038
:100020000C948A000C948A000C948A000C948A0028
:100030000C948A000C948A000C948A000C948A0018
:100040000C94A3030C948A000C948A000C948A00EC
:100050000C948A000C948A000C948A000C948A00F8
:100060000C948A000C948A000000000024002700F1
:100070002A0000000000250028002B0000000000DE
:1000800023002600290004040404040404040202DA
:100090000202020203030303030301020408102007
:1000A0004080010204081020010204081020000012
:1000B0000007000201000003040600000000000029
:1000C00000007D0211241FBECFEFD4E0DEBFCDBF04
:1000D00011E0A0E0B1E0E8E1F9E002C005900D9286
:1000E000AA33B107D9F711E0AAE3B1E001C01D922C
:1000F000AE34B107E1F710E0C4ECD0E004C02297C1
:10010000FE010E948604C23CD107C9F70E942F035A
:100110000C948A040C940000FB019F01E894423087
:10012000C4F04532B4F44A3029F497FB1EF490959C
:1001300081959F4F642F77270E947004805D8A33DA
:100140000CF0895D8193CB010097A1F716F45DE275
:1001500051931082C9010C94AD00DC01FC01672FA2
:1001600071917723E1F7329704C07C916D9370838E
:100170006291AE17BF07C8F308957093360160937C
:100180003501615070406230710530F081E090E0DF
:100190009093360180933501089580912B0160E0A2
:1001A0000E94560381E090E00E94150480912B018B
:1001B00061E00E94560381E090E00E941504809166
:1001C0002B0160E00E94560361E070E080E090E067
:1001D0000E94EB030895EF92FF920F931F93CF932A
:1001E000DF937C018B010F701070C0912D01D091B5
:1001F0002E0108C0602F61708C2F0E945603159548
:100200000795219680913301909134018C179D07B9
:100210008CF7C7010E94CD00DF91CF911F910F9104
:10022000FF90EF900895EF92FF920F931F938C0130
:100230007B0194E0759567959A95E1F7C8010E9456
:10024000EB008FE0E822FF24C801B7010E94EB0019
:100250001F910F91FF90EF9008950F931F93CF93ED
:10026000DF93EC018B018091270160E00E9456032F
:1002700080913A0190913B01892B29F080912901CD
:1002800060E00E945603CE01B8010E94EB00DF91AE
:10029000CF911F910F9108950F931F93CF93DF93E9
:1002A000EC018B018091270161E00E94560380914F
:1002B0003A0190913B01892B29F08091290160E05E
:1002C0000E945603CE01B8010E941301DF91CF9125
:1002D0001F910F910895CF92DF92FF920F931F937A
:1002E000CF93DF936C018B01FF240AC0C00FD11F95
:1002F0006881772767FD7095C6010E944C01F394D1
:10030000CF2DD0E0F80101900020E9F73197E01BF4
:10031000F10BCE17DF0750F3DF91CF911F910F91B3
:10032000FF90DF90CF9008950F931F93CF93DF93AB
:10033000EC018B018091270160E00E9456038091BF
:100340003A0190913B01892B29F08091290160E0CD
:100350000E945603CE01B8010E941301DF91CF9194
:100360001F910F910895EF92FF920F931F93CF93D8
:10037000DF937C01EB018A0162E070E00E9494014E
:1003800062E070E080E090E00E94EB038091350134
:1003900090913601019721F0229711F4085D1F4FCB
:1003A000C0E0D0E006C0C70164E170E00E949401A3
:1003B0002196C017D107BCF3DF91CF911F910F9108
:1003C000FF90EF900895CF93DF93EC0180912B0184
:1003D00061E00E9436038091270161E00E943603AC
:1003E00080913A0190913B01892B29F0809129015C
:1003F00061E00E94360380912D0161E00E94360386
:1004000080912F0161E00E9436038091310161E00B
:100410000E9436038091330161E00E94360362E35B
:1004200070E080E090E00E94EB03CE0163E070E0BA
:100430000E942D0165E070E080E090E00E94EB03F7
:10044000CE0163E070E00E942D0184E690E00E94FE
:100450001504CE0163E070E00E942D0165E070E0BC
:1004600080E090E00E94EB03CE0162E070E00E9429
:100470002D01CE0162E070E00E942D0160913501F6
:10048000709136016150704023E0660F771F2A9506
:10049000E1F7CE010E942D018CE390E00E9415044B
:1004A000CE016CE070E00E9494018CE390E00E9429
:1004B0001504CE0161E070E00E94940163E070E0F9
:1004C00080E090E00E94EB03CE0166E070E00E94C5
:1004D000940161E070E080E090E00E94EB03DF9126
:1004E000CF91089561E070E00E94940161E070E0B6
:1004F00080E090E00E94EB0308958CE391E062E0DD
:1005000070E00E94BD0008958DE061E00E945603F6
:100510008CE391E062E070E040E050E00E94B301C3
:1005200080913D0190913E0161E471E04AE050E02C
:100530000E948C008CE391E061E471E00E946B0109
:100540008CE391E060E071E00E946B018CE391E04C
:1005500062E070E044E050E00E94B301109240017C
:1005600010923F010FC08CE391E06FEF70E00E94AA
:100570004C0180913F019091400101969093400180
:1005800080933F0180913D0190913E0163E070E0D6
:100590000E945D0480913F0190914001861797076A
:1005A00014F37093400160933F010FC08CE391E01E
:1005B00062E071E00E946B0180913F0190914001E7
:1005C00001969093400180933F0180913F0190916B
:1005D000400181975CF320913D0130913E0122362C
:1005E000310534F08FEF9FEF9093380180933701FE
:1005F00080913701909138018F5F9F4F49F42135E9
:10060000310534F481E090E0909338018093370114
:100610008091370190913801820F931F90933E0192
:1006200080933D018DE060E00E94560364E670E037
:1006300080E090E00E94EB0308950F931F930CE37A
:1006400011E0C8010E94E301C8010E947202C801C2
:1006500064E071E00E946B011F910F9108950E9468
:1006600023040E941D030E948402FDCF282F30E046
:10067000C90186569F4FFC0194912A573F4FF901BB
:100680008491882391F0E82FF0E0EE0FFF1FE859E6
:10069000FF4FA591B491662329F48C9190958923FD
:1006A0008C9308958C91892B8C930895482F50E05A
:1006B000CA0182559F4FFC012491CA0186569F4F63
:1006C000FC0194914A575F4FFA0134913323D1F1E1
:1006D000222331F1233021F4809180008F7705C0EF
:1006E000243031F4809180008F7D8093800018C089
:1006F000213019F484B58F7704C0223021F484B5F9
:100700008F7D84BD0DC0263021F48091B0008F779D
:1007100005C0273029F48091B0008F7D8093B00010
:10072000E32FF0E0EE0FFF1FEE58FF4FA591B491BD
:10073000662329F48C91909589238C9308958C914C
:10074000892B8C9308951F920F920FB60F9211244C
:100750002F933F938F939F93AF93BF9380914901C2
:1007600090914A01A0914B01B0914C0130914D0103
:100770000196A11DB11D232F2D5F2D3720F02D5780
:100780000196A11DB11D20934D01809349019093C5
:100790004A01A0934B01B0934C0180914501909187
:1007A0004601A0914701B09148010196A11DB11DDC
:1007B0008093450190934601A0934701B09348016F
:1007C000BF91AF919F918F913F912F910F900FBE4D
:1007D0000F901F901895EF92FF920F931F937B013C
:1007E0008C018FB7F8944091490150914A01609172
:1007F0004B0170914C018FBF2FB7F8948091490144
:1008000090914A01A0914B01B0914C012FBF841BE4
:10081000950BA60BB70BE816F9060A071B0760F73E
:100820001F910F91FF90EF900895019759F0FC01EF
:10083000EE0FFF1FEE0FFF1F32978FB7F89431971F
:10084000F1F78FBF0895789484B5826084BD84B534
:10085000816084BD85B5826085BD85B5816085BDBB
:10086000EEE6F0E0808181608083E1E8F0E0808165
:1008700082608083808181608083E0E8F0E0808115
:1008800081608083E1EBF0E0808184608083E0EB35
:10089000F0E0808181608083EAE7F0E0808184601D
:1008A0008083808182608083808181608083808179
:1008B000806880831092C100089597FB092E072657
:1008C0000AD077FD04D00CD006D000201AF4709521
:1008D00061957F4F0895F6F7909581959F4F089504
:1008E000AA1BBB1B51E107C0AA1FBB1FA617B70756
:1008F00010F0A61BB70B881F991F5A95A9F7809572
:100900009095BC01CD010895EE0FFF1F0590F49165
:08091000E02D0994F894FFCFDB
:1009180025002000576F726C642041726475696EFF
:10092800696E6174696F6E20696E2070726F67728C
:100938006573732E2E2E0002007F0003000400054D
:0A0948000006000700020001000095
:00000001FF
